S01800004C454420737175656E63652056322E302E737265631D
S11300000C9432000C94AA000C9444000C94440008
S11300100C9444000C9444000C9444000C9444004C
S11300200C9444000C9444000C9444000C9444003C
S11300300C9444000C9444000C9444000C9444002C
S11300400C9444000C9444000C9444000C9444001C
S11300500C944400760087008C00910096009B006D
S1130060A000A50011241FBECFE5D8E0DEBFCDBFA0
S113007020E0A0E6B0E001C01D92A136B207E1F78E
S11300800E9458000C943B020C94000041E00E9432
S1130090C000811181E0089541E00E943B0181117B
S11300A081E0089540E00E943B01811181E00895C0
S11300B060E081E40E94460061E081E40E94460021
S11300C062E081E40E94460063E081E40E9446000D
S11300D066E080E00E94B601E0916000F0E0E83064
S11300E0F105D0F7E65DFF4F0C94350260E081E442
S11300F00E94520061E081E40E94520062E081E4C7
S11301000E94520063E081E40E945200E5CF60E067
S113011081E40E944C00E0CF61E081E40E944C0045
S1130120DBCF62E081E40E944C00D6CF63E081E43F
S11301300E944C00D1CF60E081E40E945200CCCFF9
S113014061E081E40E945200C7CF62E081E40E9432
S11301505200C2CF1F920F920FB60F9211248F93A9
S113016080916000873020F48F5F8093600002C02C
S1130170109260008F910F900FBE0F901F901895F2
S1130180823431F118F4813439F073C08334E1F1ED
S1130190843409F454C06DC041110CC02AB381E009
S11301A090E002C0880F991F6A95E2F78095822338
S11301B08ABB5FC0413009F05CC02AB381E090E0A3
S11301C002C0880F991F6A95E2F7822B8ABB51C03F
S11301D041110CC027B381E090E002C0880F991F41
S11301E06A95E2F78095822387BB43C0413009F0CA
S11301F040C027B381E090E002C0880F991F6A9540
S1130200E2F7822B87BB35C041110CC024B381E0D7
S113021090E002C0880F991F6A95E2F780958223C7
S113022084BB27C0413029F524B381E090E002C0AB
S1130230880F991F6A95E2F7822B84BB1AC041117B
S11302400CC021B381E090E002C0880F991F6A9529
S1130250E2F78095822381BB0CC0413051F421B375
S113026081E090E002C0880F991F6A95E2F7822B23
S113027081BB80E00895823431F118F4813439F07F
S113028073C08334E1F1843409F454C06DC0411166
S11302900CC02BB381E090E002C0880F991F6A95CF
S11302A0E2F7809582238BBB5FC0413009F05CC0CC
S11302B02BB381E090E002C0880F991F6A95E2F7A2
S11302C0822B8BBB51C041110CC028B381E090E05C
S11302D002C0880F991F6A95E2F78095822388BB34
S11302E043C0413009F040C028B381E090E002C02F
S11302F0880F991F6A95E2F7822B88BB35C041119C
S11303000CC025B381E090E002C0880F991F6A9564
S1130310E2F78095822385BB27C0413029F525B3B8
S113032081E090E002C0880F991F6A95E2F7822B62
S113033085BB1AC041110CC022B381E090E002C019
S1130340880F991F6A95E2F78095822382BB0CC0BF
S1130350413051F422B381E090E002C0880F991F2C
S11303606A95E2F7822B82BB80E008959FB790687C
S11303709FBF811130C0643089F018F4633031F0CC
S113038025C0653099F06630C9F020C085B78E7FEE
S113039085BF85B78D7F85BF80E019C085B7816033
S11303A085BF85B78D7F85BF80E011C085B78E7FFF
S11303B085BF85B7826085BF80E009C085B781604D
S11303C085BF85B7826085BF80E001C081E09BB7AF
S11303D090649BBF0895813081F5643089F018F4EE
S11303E0633031F025C0653099F06630C9F020C023
S11303F085B78B7F85BF85B7877F85BF80E019C0B0
S113040085B7846085BF85B7877F85BF80E011C0CD
S113041085B78B7F85BF85B7886085BF80E009C0BD
S113042085B7846085BF85B7886085BF80E001C0DB
S113043081E09BB790689BBF08958230A1F465303A
S113044019F0663031F00AC084B78F7B84BF80E036
S113045006C084B7806484BF80E001C081E09BB79C
S113046090629BBF089581E00895EE0FFF1F0590F1
S10D0470F491E02D0994F894FFCFF5
S9030000FC
